:03000000020030CB
:100030007590007580FFD2927AFF31AA119DB4FFAE
:100040000280F9B40A0A7AFF318DD29231AA80EC8B
:10005000B40B06EAB4FF0780E3FA31AA80DE31016F
:1000600030B21AEA3131B50009318DD290118B02CC
:100070000030318DD291D293118B020030EA88F09A
:10008000311B318DD294118B020030119DB4FFFBD6
:10009000119DB4FF0280F9119DB4FFFB2275A0F001
:1000A000E5A054F064F0603275A0FEE5A030A42D08
:1000B00030A52D30A62D75A0FD30A42A30A52A30FC
:1000C000A62A75A0FB30A42730A52730A62775A047
:1000D000F730A42730A52130A62474FF2274012212
:1000E000740222740322740422740522740622749A
:1000F0000722740822740922740022740A22740BE5
:10010000229001C07F807800E49368F87E08E8338D
:1001100050026431F8DEF7A3DFEE22314974A031DA
:100120005974003159EA3159E5F03159315231846D
:1001300022314974A0315974003159EA3159314999
:1001400074A131593172315222D2B0D2B1C2B0C28F
:09015000B122C2B0D2B1D2B0223A
:100159007B083392B0D2B1316FC2B1DBF5D2B0D2E4
:10016900B1316FC2B1220000227B08D2B0D2B1A254
:10017900B033C2B1DBF7D2B1C2B1227C0A7DFADD5C
:10018900FEDCFA22C290C291C292C294C29322D2D8
:10019900903184C29022C0F9A4B0999282F88090DB
:1001A900BFEAB4FF02740A90019F93F5802290017F
:1001B9009F93F580D0E022121222020232123212EB
:1001C90032AA55FF00112233445366778899AABB96
:1001D900CCDDEEFF0102030405060708090A0B0C32
:1001E9000D0E0F1011121320212223242526272852
:1001F900292A2B2C2D2E2F303132333435363738EE
:10020900393A3B3C3D3E3F404142434445464748DD
:10021900494A4B4C4D4E4F505152535455565758CD
:10022900595A5B5C5D5E5F606162636465666768BD
:07023900696A6B6C6D6E6FCA
:00000001FF
